:020000040800F2
:10000000F8060020A9010008812400086F220008DA
:10001000D9230008991400084D29000800000000A9
:10002000000000000000000000000000852400081F
:10003000C114000800000000832400088724000881
:10004000C3010008C3010008C3010008C301000880
:10005000C3010008C3010008C3010008C301000870
:10006000C3010008C3010008C3010008C301000860
:10007000C3010008C3010008C3010008C301000850
:10008000C3010008C3010008C3010008C301000840
:10009000C3010008C3010008C3010008C301000830
:1000A000C3010008C3010008C3010008C301000820
:1000B000C3010008C3010008C3010008C301000810
:1000C000C3010008C3010008C3010008C301000800
:1000D000C3010008C3010008C3010008C3010008F0
:1000E000C3010008C3010008C301000800F002F8C2
:1000F00000F04AF80AA090E8000C82448344AAF178
:100100000107DA4501D100F03FF8AFF2090EBAE875
:100110000F0013F0010F18BFFB1A43F0010318473B
:10012000A8360000C8360000103A24BF78C878C14D
:10013000FAD8520724BF30C830C144BF04680C60ED
:10014000704700000023002400250026103A28BF35
:1001500078C1FBD8520728BF30C148BF0B60704739
:10016000662903F06182732900F0958300207047AF
:100170001FB500F095FB04000020002102F076FD81
:10018000E0601FBD10B510BD00F086FC1146FFF702
:10019000EFFF02F007FC00F0A4FC03B4FFF7F2FF4E
:1001A00003BC00F0E5FC000009488047094800470F
:1001B000FEE7FEE7FEE7FEE7FEE7FEE7FEE7FEE717
:1001C000FEE7FEE704480549054A064B7047000074
:1001D000E9240008ED000008F8000020F8060020DF
:1001E000F8020020F80200200FB41CB50C0007AA8A
:1001F000009001D02044401E074B7B44694601908B
:10020000069800F016FB002C03D06946002000F091
:1002100023FB1CBC5DF814FB6506000070B50C46A2
:100220000546012A05D02878800600D5EA69002312
:1002300002E0012305E05B1C934202D2E05C00284F
:10024000F9D1A869E618C01AA861286A184428627A
:100250002846AFF3008004E0D5E9012114F8010B32
:100260009047B442F8D32846AFF3008070BD2DE923
:10027000F0474FF0000A89460446C0F820A0204607
:10028000E1688847002876D0252806D0D4E90121E6
:100290009047206A401C2062F1E7E1682046002573
:1002A0008847C4F81CA006460027C4F818A02A2EC8
:1002B00009D0304602F06FFB38B304EB8708303EBC
:1002C000C8F8186019E059F8041B204604EB8702AF
:1002D0009161E1688847012F064618D1E06900283E
:1002E00020DA25F020051DE0D8F8180000EB80008A
:1002F00006EB40003038C8F818002046E16888470F
:10030000064602F048FB0028EED1012F0AD02E2E1F
:1003100008D12046E16888477F1C0646022F45F039
:100320002005C4DBA069002803DA404245F001053E
:10033000A061E80701D025F01005B6B1A6F1410093
:10034000192802D8203645F400654A463146204631
:1003500025604D46FFF704FF58B1012806D0ED1D7A
:1003600025F0070000F1080989E704E005F1040918
:1003700085E730468AE7206ABDE8F08710B5431C60
:1003800002E010F8011B71B18107FAD14FF0013280
:1003900002C88C1A8C4314EAC211F9D0C01A0A069A
:1003A00003D0C01E10BDC01A10BD0A0401D0801EAB
:1003B00010BD0902FCD0401E10BD4FF0000200B578
:1003C000134694469646203922BFA0E80C50A0E878
:1003D0000C50B1F12001BFF4F7AF090728BFA0E826
:1003E0000C5048BF0CC05DF804EB890028BF40F8F2
:1003F000042B08BF704748BF20F8022B11F0804F34
:1004000018BF00F8012B704770477047704770475E
:100410002DE9FF4F0C461E464FF0FF378BB0D2E957
:100420000001DDF860800A908A46C1F30A5505B9DB
:100430003D46002108464FF00000BAF1000F00F4DD
:10044000400005DA00EB80004FF4400101EA500063
:100450004FEA9059B9F1010F00DDB9460A9850EA08
:100460004A000ED044F61050A5F2FF3545432F1434
:10047000B8F1000F1ED07542291E1EDDC9F1000221
:100480001CE0B8F1010F4FF0000001D0302103E073
:10049000F24305E02154401CB042FBDB3046002211
:1004A000002121540B99C1F80880C1E900200FB048
:1004B000BDE8F08FBD1B6D1CDEE74A4600DA6942DD
:1004C00006A800F077FA06AB93E8070003AB83E8D1
:1004D000070050460A9900F052FB8DE80700A0F58E
:1004E00000501F3800900398002D09DD42F21F01D3
:1004F0004A46084403A90390684600F0B1FD08E0AD
:10050000A0F500504A461F3803A90390684600F042
:10051000BBFD8DE807000004000C03D04FF0FF3056
:10052000410800E01046B8F1000F03D0002200920D
:1005300015461EE0751E05D400F0B6F9303262553E
:100540006D1EF9D5B3460122084302D000227F1C5C
:1005500004E02078302801D100227F1E002A09976C
:1005600086D01DE0112D07DA00F09EF93032625579
:100570006D1C50EA0102F5D1084302D00098C8B1C1
:100580000EE00021681E05E0235C625C6354225487
:10059000401E491C8142F7DBAB46A81B401E099058
:1005A000002004F80B000B98099AC0F80880C0E9F5
:1005B000002B7CE711264FF0000859E72DE9F04F9A
:1005C00088460446D21D22F0070191B0D1E900010E
:1005D000CDE90A0102F0BBF902460B98C00F01D029
:1005E0002D2007E02068810701D52B2002E0202183
:1005F00001EAC000032A099001D0072A05DB03465F
:100600004146204600F096F90BE12078800601D59E
:10061000E06900E00620B8F1650F814606D0B8F128
:10062000660F18D0B8F1670F70D131E00020B9F132
:10063000110F009001DB112301E009F101030AAA67
:1006400001A90CA8FFF7E4FEDDE90C70002609F112
:100650000105834647E001204B4600904FF00047DC
:100660000AAA01A90CA8FFF7D3FEDDE90DB00C9989
:100670005D46002610B909F101000D18B9EB05001F
:1006800003D4C0F1FF3609F10105A5EB09002BE009
:10069000B9F1010F01DA4FF001090020B9F1110F92
:1006A0000090484601DD112300E003460AAA01A993
:1006B0000CA8FFF7ADFEDDE90C704D460026834621
:1006C000207800070AD4AB4500DA5D4601A8012D69
:1006D00004DD411911F8011C302907D04F4502DA19
:1006E00017F1040F04DA012082460FE06D1EEEE7D9
:1006F000002F02DCED1B3E4403E0781CA84200DD25
:100700007D1CB81B00F1010A4FF00047207800075C
:1007100003D4AA4501DB4FF0FF3A0021B7F1004FA7
:100720000DF143088DF8431024D002202B23002F15
:1007300001DA7F422D230A21021EA0F1010000DC14
:100740005FB197FBF1FC97FBF1F201FB1C7C1746B4
:100750000CF1300C08F801CDEEE7A8F101000370B0
:100760002188090501D5452100E06521A0F1010896
:1007700000F8011C09980FA9A1EB0807FF1D00B1A3
:100780000120411901EBEA70A1693844081A401EA2
:10079000A0612078C00602D42046AFF300800998FB
:1007A00028B1D4E901219047206A401C20622078BA
:1007B000C00622D52046AFF300801EE0002E04DBE9
:1007C000B34502DD01A8805D00E03020D4E90121BD
:1007D0009047206A401C2062761CAAF101005FEA63
:1007E000000A0AD100F05CF8C0680168405CD4E9F6
:1007F00001219047206A401C2062281EA5F10105B6
:10080000DCDC07E0D4E9012118F8010B9047206AED
:10081000401C2062381EA7F10107F3DC2046AFF32D
:100820000080032011B043E601694A1C0261087888
:10083000704700B58FB0CDE9013100210591054920
:100840007944CDE9031011466846FFF710FD0FB05B
:1008500000BD0000E5FFFFFF0A6802F8010B0A6017
:100860007047D1E900239A4202D2531C0B601070EA
:10087000704710B5436913B1AFF3008001E0FFF793
:10088000CDFC012010BD127800F124010A70002275
:100890004A700122EDE711684FF0FF32E9E70000EE
:1008A00000487047B800002030B5B0F10A024FEAA6
:1008B000900E71F100034EEA817EB0EB0E0061EB09
:1008C00091014FEA101E4EEA017E10EB0E0041EB43
:1008D00011114FEA102E4EEA016E10EB0E0041EBA3
:1008E00011214FEA104E4EEA014E10EB0E0041EB83
:1008F0001141401841F100014FEAD00040EA417037
:100900004FEAD10110EB80054FEA810444EA90746C
:1009100044EB01046D1944EB0404521BA3414FF056
:10092000000348BF0A3200D530BD401C41F1000130
:1009300030BD00002DE9F0411F4604460326016842
:10094000072A01F4006004DB08B116A505E016A52E
:1009500003E008B115A500E015A521F01000206006
:10096000A069C01EA0610FB1401EA0612046AFF378
:1009700000804FB1D4E9012138469047206A401CDD
:100980002062C01C206206E0206AFAE7D4E9012157
:1009900015F8010B9047761EF8D22046AFF3008081
:1009A000BDE8F0814E414E006E616E00494E46003A
:1009B000696E66002DE9F047814616468AB03348D5
:1009C00078440DC88DE80D0030487844801C03AC95
:1009D0000DC884E80D0041F69B300844372190FB98
:1009E000F1F290FBF1F5A5F1800501FB12041B3C2F
:1009F00002D56442012000E00020DFF890A080468C
:100A00000027FA44AAF1BE0A0DE0E00709D03246F9
:100A1000684607EB47010AEB810100F035FB8DE8E2
:100A2000070064107F1C002CEFD1184F7F44AC3FAF
:100A300018E0E80714D007EB04100DF1180A90E84D
:100A40000E008AE80E00C068F04201D198190890A3
:100A5000324606A903A800F017FB03AB83E80700A2
:100A60006D10641C002DE4D132466946B8F1000FC8
:100A700003A802D000F0F4FA01E000F005FBC9E998
:100A80000001C9F808200AB0BDE8F087EC2D00008D
:100A900000487047980000207546FFF7F9FFAE4602
:100AA00005006946534620F00700854618B020B57A
:100AB000FFF788FBBDE820404FF000064FF000072D
:100AC0004FF000084FF0000B21F00701AC46ACE8F6
:100AD000C009ACE8C009ACE8C009ACE8C0098D4663
:100AE00070470446AFF300802046FFF756FB000036
:100AF0004FF0013C50F8042B51F8043B9A4221D1AD
:100B0000A2EB0C03934313EACC1317D150F8042B38
:100B100051F8043B9A4215D1A2EB0C03934313EA1C
:100B2000CC130BD150F8042B51F8043B9A4209D155
:100B3000A2EB0C03934313EACC13DBD04FF000007D
:100B4000704700BFD01A01BAB1FA81F101F0180163
:100B500022FA01F0CB40C1F12001DBB2C0B2C01AD1
:100B60002CFA01F3D11A914311EAC311E6D170476F
:100B700001491820ABBEFEE72600020070475FEA7D
:100B8000400C08BF91F0000F4FEA8C234FEAC122BE
:100B900043EA51514FEA1C5018BF00F5F0404FEAAC
:100BA000300018BF41F000415FEA6C5C00F0298022
:100BB000BCF1FF3F08BF40F080407047130C06BFF8
:100BC00012044FF0100C4FF0000C130E04BF120271
:100BD0000CF1080C130F04BF12010CF1040C930F5D
:100BE00004BF92000CF1020CD30F04BF52000CF1B1
:100BF000010C11464FF00002A0F11F00A0EB0C0009
:100C0000704711F0004F08BF704731F000413FF4CA
:100C1000D5AF0B0C06BF09044FF0100C4FF0000CC1
:100C20000B0E04BF09020CF1080C0B0F04BF0901E5
:100C30000CF1040C8B0F04BF89000CF1020CCB0FDC
:100C400004BF49000CF1010CCCF12003A0EB0C0017
:100C500022FA03F302FA0CF241EA030100F1010067
:100C6000704720F07F4C80EA030023F07F47ACEB15
:100C7000070303F57C5300F0004003F1FF032DE967
:100C800080494FEA154B09B44FEA144325EA0B4E4D
:100C900024EA03480FF2042606EB132749083E789E
:100CA0005FEA320203FB0667C7F5000707FB06F69B
:100CB0004FEA54374FEAD64606F1020607FB066CA8
:100CC000CCF1005C4FEA1C472CEA074C07FB06F40A
:100CD0000CFB06F504EB15464FEA961634BF0020D0
:100CE0004FF000404FEAD13706FB07FC4FEA1C4C9F
:100CF0000CFB0BF7D21B03FB0CF761EB07010CFBA2
:100D00000EF7B0EB074072EB17420CFB08F734BF4D
:100D1000A2EB0742B2EB074261EB17414FEA0C44EA
:100D20004FEA910706FB07FC4FEA1C4C0CFB0BF744
:100D3000B0EBC74072EB573203FB0CF734BFA2EBAA
:100D4000C742B2EBC74261EB57310CFB0EF7B0EB79
:100D5000C70072EB57720CFB08F734BFA2EBC70257
:100D6000B2EBC70261EB5771039F4FEA816141EA21
:100D7000921104EBCC044FEAD1374FEA826206FBB2
:100D800007FC42EA90124FEA80604FEA1C4C0CFBD1
:100D90000BF7D21B03FB0CF761EB07010CFB0EF703
:100DA000B0EB074072EB17420CFB08F734BFA2EB25
:100DB0000742B2EB074261EB17414FEA8C554FEA0D
:100DC000910704EB9C2406FB07FC4FEA1C4C0CFB30
:100DD0000BF7B0EBC74072EB573203FB0CF734BF95
:100DE000A2EBC742B2EBC74261EB57310CFB0EF7E7
:100DF000B0EBC70072EB57720CFB08F734BFA2EBE5
:100E0000C702B2EBC70261EB577115EB4C254FEAF5
:100E1000816141EA92114FEA82624FEAD13742EA98
:100E2000901206FB07FC44F100044FEA80604FEA91
:100E30001C4C0CFB0BF7D21B03FB0CF761EB0701FF
:100E40000CFB0EF7B0EB074072EB17420CFB08F7F8
:100E500034BFA2EB0742B2EB074261EB174115EB3F
:100E60001C154FEA813141EA92414FEA823242EA4F
:100E700090424FEA80304FEA0C7644F1000448EA91
:100E800003434EEA0B484FF0000EB2EB080C71EB37
:100E9000030724BF624639464EEB0E0E4FF0000B9F
:100EA0000018524149414BEB0B0BB2EB080C71EBB4
:100EB00003077BF1000B24BF624639464EEB0E0E52
:100EC0004FF0000B0018524149414BEB0B0BB2EBBA
:100ED000080C71EB03077BF1000B24BF6246394617
:100EE0004EEB0E0E51EA020718BF46F0010616EB54
:100EF0000E7655F1000254F1000103D5BDE88901D9
:100F0000BDE80088BDE88901BDE80048B619524136
:100F100041EB0101A3F10103704780807F7E7D7C5E
:100F20007B7A7978777676757473727171706F6E7B
:100F30006E6D6C6C6B6A6A69686867666665646426
:100F4000636362616160605F5F5E5E5D5D5C5C5BB0
:100F50005B5A5A595958585757565655555554541F
:100F6000535352525251515050504F4F4F4E4E4D7D
:100F70004D4D4C4C4C4B4B4B4A4A4A4949494848C9
:100F80004847474747464646454545444444444309
:100F900043434342424242414141002B26D4770021
:100FA00021D01CB54FEA370703B44FF010004FF0C3
:100FB00010014FF000000FBCBDE810400BF1010B19
:100FC000BBF1010F08BF5FEA170722BF12F1010250
:100FD00011F101014FF0004143F1000300F0004026
:100FE00043EA00007047F9D35708DAE746EA0646B5
:100FF00013F1400F4FEA16461FDD13F1200FDFBF3C
:1010000016430A46002120335B42C8D0C3F12007B3
:1010100046EA064602FA07F74FEA164646EA070688
:10102000C3F1200722FA03F201FA07F721FA03F1CC
:101030004FF0000342EA0702B1E746EA020646EA39
:1010400006464FEA164646EA0106BCBF46EA064691
:10105000360C4FF000034FF000024FF000019EE706
:101060002DE9C048934630B491E8380007C831EA0A
:10107000400C48BF34EA430C03D5FFF7F2FDFFF7FD
:101080008CFFF0BCBDE800882DE9C048934630B421
:1010900091E8380007C810F0804F08BF13F0804F68
:1010A00003D100F005F8FFF778FFF0BCBDE8008839
:1010B00020F07F4780EA030023F07F4C07EB0C030E
:1010C000A3F57C5300F00040A3F1FE0392F0000F63
:1010D00000F0B38095F0000F00F077802DE9014912
:1010E0004FEA11404FEA144621EA004800FB06FC93
:1010F00024EA064708FB06F607FB08F800FB07F79B
:1011000018EB06484CEB164C4FEA124B18EB07480D
:101110004FEA15464CEB174022EA0B4E0BFB06FC40
:1011200025EA06470EFB06F607FB0EFE0BFB07F74C
:101130001EEB064E4CEB164C4FF000061EEB074E16
:101140004CEB174B18EB0B0840F1000018EB0E0BA3
:1011500058EB000840F100008F1A4FF000013CBF2F
:10116000C943661B14BFB5EB040C00213CBFC94347
:10117000F61B4FEA17444EEA8E0E27EA04454FEA63
:101180001C4704FB07622CEA074C05FB07F70CFB26
:1011900005F604FB0CFC16EB074642EB174216EB78
:1011A0000C4642EB1C421BEB060658EB0202414187
:1011B00046EA9E0601D5BDE80189B619524141EBC8
:1011C0000101A3F10103BDE801894FEA14454FEA8B
:1011D000114724EA054621EA074C05FB07F406FB04
:1011E00007F70CFB06F105FB0CFC11EB074144EB88
:1011F00017444FEA124711EB0C4144EB1C4422EA1E
:10120000074C05FB07F206FB07F70CFB06F605FB90
:101210000CFC16EB074642EB174216EB0C4642EB72
:101220001C456A1854F1000148BF7047B619524175
:1012300041EB0101A3F10103704795F0000F37D096
:101240004FEA11424FEA144721EA024624EA074CCA
:1012500002FB07F106FB07F70CFB06F402FB0CFC94
:1012600014EB074441EB17414FEA154714EB0C44CC
:1012700041EB1C4125EA074C02FB07F506FB07F78B
:101280000CFB06F602FB0CFC16EB074645EB17457C
:1012900016EB0C4645EB1C42121951F1000148BFF8
:1012A0007047B619524141EB0101A3F101037047A8
:1012B0004FEA14454FEA114724EA054621EA074C54
:1012C00005FB07F106FB07F70CFB06F24FF00006E3
:1012D00005FB0CFC12EB074241EB174112EB0C42F1
:1012E00051EB1C4148BF7047921841EB0101A3F13B
:1012F0000103704701A000F0B5B80000426C7565AD
:10130000746F6F746820285553415254332920520A
:10131000656164790000000013460A4601460148F1
:1013200000F0EEBE58000020F8B514460D46064603
:10133000322201216846FFF7EFFF00281FD19DF8F8
:101340000000244A244B4138062818D2DFE800F078
:1013500003182D081D32D6E9000101F09DFC0CE0B8
:10136000D6E9000114461D4602F03EF807D2D6E940
:10137000000122462B4602F06DF8C6E90001F8BDD7
:10138000D5E9000101F088FC0CE0D5E90001144624
:101390001E4602F029F8F2D8D5E90001224633466C
:1013A00002F058F8C5E90001F8BDD4E9000101F0E8
:1013B00073FC0CE0D4E9000115461E4602F014F857
:1013C000F2D8D4E900012A46334602F043F8C4E9D2
:1013D0000001F8BD9A9999999999B93F00B593B0D0
:1013E0001346CDE9000108A2402102A8FEF7FCFE49
:1013F00002A8FEF7C3FF82B24FF0FF3302A90448F0
:1014000000F0DCFE13B000BD252E2A660D0A000098
:101410005800002030B59FB0DDE922458DE83F003F
:1014200008A2642106A8FEF7DFFE06A8FEF7A6FFC5
:1014300082B24FF0FF3306A9094800F0BFFE1FB08B
:1014400030BD00004B703A252E3266204B693A259C
:101450002E3266204B643A252E32660D0A000000BB
:101460005800002000B5C1B0034609A24FF48071B6
:101470006846FEF7B9FE6846FEF780FF82B24FF07D
:10148000FF336946034800F099FE41B000BD0000FB
:101490002573000058000020FEE7000006480168A0
:1014A00041F080710160054800214160016841F010
:1014B0000101016070470000FCED00E0001000E059
:1014C0007047000070B5074C0546666800F066FA84
:1014D0000549B0FBF1F169436068801B8842FBD38A
:1014E00070BD0000001000E040420F0072B6FEE741
:1014F0002DE9F04104460F4601F0CAF905460E46B3
:101500000A4A0B4B2046394601F070FE074A07464F
:101510000C46921C074B2846314601F067FE3A46BE
:101520002346BDE8F04101F0B7BB000098999999B6
:101530009999C93F9999E93F70B5044600F008F9B7
:101540000546601C02D004480078044400F000F90D
:10155000401BA042FAD370BD000000202DE9F84FD7
:10156000DFF8B891002409F1040A0AF1040B2346BC
:101570000F270BF1040EC9E00125A5402A40AA421D
:101580007DD1674ED1F804C0ACEB0608B44532D02B
:1015900014DCBCF1030F3AD009DCBCF1000F2AD0F7
:1015A000BCF1010F1CD0BCF1020F31D11DE0BCF128
:1015B000110F17D0BCF1120F2AD119E0B8F5881F0E
:1015C00019D006DCB8F5803F15D0B8F5801F1FD1C3
:1015D00011E0B8F5001F0ED0B8F5041F18D10AE0CD
:1015E000CB6815E0CB681B1D12E0CB6808330FE019
:1015F000CB680C330CE08B682BB1012B4FF0080348
:1016000003D0456104E0042302E0056100E000230B
:10161000FF2A01D8064601E000F104064FEA8405DE
:1016200001D9A5F12005D6F8008007FA05FC28EAC3
:101630000C0803FA05F548EA0508C6F800804D686D
:10164000ED0062D5374DAE6946F00106AE61AD6979
:1016500024F0030605F001050095334D06EB050C5B
:10166000DCF80850A607360F07FA06F825EA080541
:10167000DFF8B880404503D14FF0000817E044E0A0
:10168000DFF8AC80404502D14FF001080FE0DFF8F1
:10169000A480404502D14FF0020808E0DFF89880AE
:1016A000404502D14FF0030801E04FF0040808FA6A
:1016B00006F848EA0508CCF808804D68D9F80060BB
:1016C000ED034D4601D5164300E096432E604D686C
:1016D000DAF80060AD03554601D5164300E09643A5
:1016E0002E604D68DBF80060ED025D4601D51643C3
:1016F00000E096432E604D68DEF80060AD0275464E
:1017000001D5164300E096432E60641C0D682A46FE
:10171000E5407FF431AFBDE8F88F000000040140E0
:1017200000001110001002400000014000080140BC
:10173000000C014000100140001401408068084086
:1017400000D0012070470AB1016170470904FBE72E
:10175000014880687047000000000020024881684E
:10176000027811448160704700000020074810B5DE
:10177000016841F010010160032000F067F80F20BC
:1017800000F006F800F024F8002010BD0020024010
:1017900070B50D4D04464FF47A712878B1FBF0F026
:1017A0000A490968B1FBF0F000F0E4FA48B9102CDE
:1017B00007D200222146501E00F028F800206C605D
:1017C00070BD012070BD0000000000200C00002052
:1017D0000C4808B5816941F001018161816901F01E
:1017E00001010091C16941F08051C161C06900F0FF
:1017F000805000900448416821F0E06141F0806130
:10180000416008BD0010024000000140F0B40E4BE2
:101810001B680C46C3F30223C3F10705042D00D94E
:101820000425191D072901D2002300E0DB1E012633
:1018300006FA05F1491E214099409E40761E164049
:101840003143F0BC01F097B80CED00E0064900F020
:10185000070208684FF6FF03184040EA0220034AD7
:1018600010430860704700000CED00E00000FA052E
:101870002DE9F0470F46050061D0434E306800F077
:101880000700B84209D2306820F0070038433060C2
:10189000306800F00700B84251D128683B4C8107FE
:1018A00012D5400703D5606840F4E0606060287896
:1018B000000703D5606840F4605060606068A96804
:1018C00020F0F000084360602878C00728D06868DE
:1018D000012810D02168022810D0890700292EDAAB
:1018E000616821F0030101436160FFF731FF804629
:1018F00041F288390DE021688903EFE78901EDE7BE
:10190000FFF726FFA0EB0801494502D90320BDE8F7
:10191000F0876068696800F00C00B0EB810FEFD1D0
:10192000306800F00700B8420BD9306820F007009B
:1019300038433060306800F00700B84201D0012021
:10194000E5E72878400705D56068E96820F4E0609D
:10195000084360602878000706D56068296920F48C
:10196000605040EAC100606000F03EF86168084ADB
:10197000C1F30311515CC84006490860064800687D
:10198000FFF706FF0020C2E70020024000100240DF
:101990001C3700080C0000200400002001480068EB
:1019A000704700000C0000200448054900684968A1
:1019B000044AC1F30221515CC84070470C0000206A
:1019C000001002402C3700080448054900684968A7
:1019D000044AC1F3C221515CC84070470C0000208A
:1019E000001002402C37000812A185B00FC98DE805
:1019F0000F0014A0144A006804905168134801F0C5
:101A00000C03042B10D0082B0ED1C1F38343C90360
:101A10001DF803000AD5516804AAC1F34041515C86
:101A20000A4A5043B0FBF1F005B0704708494843FB
:101A3000FAE7000002030405060708090A0B0C0D6B
:101A40000E0F1010010200000010024000127A0078
:101A500000093D002DE9F84F040070D02078C04DFA
:101A6000C00749D06868C0F38100012807D06868C2
:101A7000C0F38100022809D16868C00306D5286830
:101A8000800339D560680028E7D035E06068B0F59C
:101A9000803F0BD010B1B0F5A02F11D0286820F4F2
:101AA00080302860286820F4802002E0286840F414
:101AB00080302860606890B1FFF74AFE06460AE071
:101AC000286840F480202860F0E700BFFFF740FE60
:101AD000801B642873D828688003F7D50CE0FFF7D3
:101AE00037FE064605E000BFFFF732FE801B642884
:101AF000F0D828688003F7D420789A4E80074FF0FA
:101B000001094FF0000839D5686810F00C0F07D0B4
:101B10006868C0F38100022809D16868C00306D450
:101B20002868800714D52069012808D110E02069B1
:101B3000B0B1C6F80090FFF70BFE074605E00AE1DA
:101B4000FFF706FEC01B0228C4D828688007F7D517
:101B50002868616920F0F80040EAC10028600DE0C3
:101B6000C6F80080FFF7F4FD074604E0FFF7F0FD3C
:101B7000C01B022823D828688007F7D420780007E4
:101B80002CD57948A169D9B1C0F80090FFF7E0FDE4
:101B9000074604E0FFF7DCFDC01B02280FD8686A87
:101BA0008007F7D571484FF4FA510068B0FBF1F0A7
:101BB000009000BF0098411E0091FAD20EE080E034
:101BC000C0F80080FFF7C4FD074604E0FFF7C0FD42
:101BD000C01B022875D8686A8007F7D420784007B0
:101BE00060D5E8690027C00008D4E86940F080505B
:101BF000E861E869012700F0805000905C480168C6
:101C0000C90513D40168834641F480710160FFF770
:101C10009FFD824606E000BFFFF79AFDA0EB0A0099
:101C200064284ED8DBF80000C005F5D5E06801282F
:101C30000AD008B1052813D0286A20F001002862D4
:101C4000286A20F0040002E0286A40F001002862BF
:101C5000E06841F2883B98B1FFF77AFD82460BE0DD
:101C6000286A40F004002862EEE700BFFFF770FD2D
:101C7000A0EB0A0159455AD8286A8007F6D50CE02E
:101C8000FFF766FD824605E0FFF762FDA0EB0A0163
:101C900059454CD8286A8007F6D41FB1E86920F06E
:101CA0008050E861E06988B36968C1F38101022965
:101CB00044D00228C6F8608004D0FFF749FD0446EE
:101CC00038E034E0FFF744FD074604E0FFF740FD4D
:101CD000C01B02282BD828688001F7D4206AB0F5F1
:101CE000803F05D16868A16820F40030084368602F
:101CF000D4E908010843696821F474110843686055
:101D0000C6F86090FFF724FD044606E025E000BF1A
:101D1000FFF71EFD001B022809D828688001F7D5AF
:101D20001BE000BFFFF714FD001B022802D90320AF
:101D3000BDE8F88F28688001F4D40EE00128F7D0C0
:101D40006868226A00F48031914204D1616A00F42B
:101D50007010884201D00120EAE70020E8E7000087
:101D60000010024000004242800442420C00002069
:101D70000070004010B5401EB0F1807F01D30120FB
:101D800010BD4FF0E02460610F21601700F0F3FDFB
:101D90000020A06107202061002010BD70B590F8E0
:101DA0003C20012A26D0012480F83C40022280F801
:101DB0003D2003685A689D6822F070060A68324325
:101DC0005A600D4B02689A4208D0B2F1804F05D09C
:101DD0000A4B9A4202D00A4B9A4204D1496825F034
:101DE00080031943916080F83D40002180F83C1049
:101DF000084670BD022070BD002C01400004004068
:101E00000008004000B585B00021009101910291C9
:101E100003910068B0F1804F11D10A48816941F007
:101E2000040181618069694600F0040004900F207C
:101E300000900220019003900348FFF78FFB05B04C
:101E400000BD0000001002400008014070B50446CB
:101E500090F83C000D4601280AD0012084F83C008F
:101E600042B1042A18D0082A2AD00C2A4DD139E0D0
:101E7000022070BD206800F07DFB2068816941F080
:101E8000080181612068816921F004018161206875
:101E900081692A69114311E0206800F093FB2068F2
:101EA000816941F4006181612068816921F4806168
:101EB0008161206881692A6941EA0221816124E007
:101EC000206800F0ABFB2068C16941F00801C161E6
:101ED0002068C16921F00401C1612068C1692A69D3
:101EE000114311E0206800F0C5FB2068C16941F48E
:101EF0000061C1612068C16921F48061C16120680D
:101F0000C1692A6941EA0221C161002084F83C00CC
:101F100070BD10B5040003D094F83D0010B107E087
:101F2000012010BD002084F83C00204600F01EF87F
:101F3000022084F83D00211D206800F0D7FA01201E
:101F400084F8460084F83E0084F83F0084F840009E
:101F500084F8410084F8420084F8430084F8440087
:101F600084F8450084F83D00002010BD08B50068E5
:101F7000B0F1804F08D10548C16941F00101C1614C
:101F8000C06900F00100009008BD00000010024090
:101F900010B50446022249B104290ED0082913D0F5
:101FA00094F84100012816D0012010BD94F83E009D
:101FB0000128F9D184F83E200FE094F83F00012871
:101FC000F2D184F83F2008E094F840000128EBD1DA
:101FD00084F8402001E084F841200122206800F0CC
:101FE000BBFA0F492068884203D1426C42F4004298
:101FF00042642068884208D0B0F1804F05D009497A
:10200000884202D00849884204D1816801F0070162
:10201000062903D0016841F001010160002010BDD4
:10202000002C0140000400400008004070B504008E
:1020300004D094F83900002510B106E0012070BDED
:1020400084F83850204600F023F8242084F8390022
:102050002068C16821F40051C160204600F02CFBCB
:102060002068016921F4904101612068416921F0F3
:102070002A0141612068C16841F40051C160E563F3
:10208000202084F8390084F83A00002070BD000058
:1020900030B585B000240094019402940394006844
:1020A0001449884224D11448C16941F48021C16196
:1020B000C16901F480210491816941F008018161C5
:1020C00080690E4D00F0080004904FF4806000908D
:1020D000022001900320039069462846FFF73EFA4C
:1020E000E814CDE90004694628460294FFF736FA61
:1020F00005B030BD0048004000100240000C014017
:102100002DE9F84F044690F83A009A4616460D46D7
:10211000202851D1EDB1E6B194F8380001284BD018
:10212000012084F838000027E763222084F83A0071
:10213000FFF70EFBA6858146E685A0684FF4805820
:10214000404501D1206938B12E46002584F8387009
:1021500027E00120BDE8F88F0026F7E74B46002274
:1021600020212046CDF800A000F002FB08B103209A
:10217000F0E726B1A06840451BD038B108E02068E0
:102180004068C0F3080025F8020B07E0206980B121
:102190002068406800F07F0006F8010BE08D401ECB
:1021A000E085E08D0028D9D1202084F83A00002075
:1021B000D0E720684068EFE70220CBE72DE9F8433D
:1021C000044690F839001F4616460D4620284CD18B
:1021D000C5B1BEB194F83800012846D0012084F87A
:1021E00038004FF00008C4F83C80212084F8390002
:1021F000FFF7AEFAA6848146E684A068B0F5805F5A
:1022000003D004E00120BDE8F883206928B12E4600
:102210005FF0000584F838800EE00026FAE78021A0
:10222000204600F0A5FAA0B9AEB116F8010B21685E
:102230004860E08C401EE084E08C4B464FF000028A
:1022400000970028EBD14FF04001204600F090FAB3
:1022500030B10320D7E735F8020BC0F30800E6E7FA
:10226000202084F839000020CDE70220CBE7FEE7EC
:1022700070B586B000242048009401940294039421
:10228000816941F010018161816901F010010491BF
:10229000816941F020018161816901F0200104918F
:1022A000816941F004018161816901F004010491B7
:1022B000816941F0080181618069104E00F00800D9
:1022C0004FF420450490002229463046FFF73BFAA0
:1022D0006810CDE90004694630460294FFF73EF9E4
:1022E00001200095CDE901040220039069463046A3
:1022F000FFF734F906B070BD00100240000C014039
:1023000010B58AB0002407941C2168460894FEF793
:1023100054F822484FF0804101604721C0E9011480
:1023200040F2E731C0E903148461FFF7F2FD08B120
:10233000FFF7DCF8079407A918480894FFF72EFD6B
:1023400008B1FFF7D3F86020CDE900040294002221
:10235000694612480494FFF779FD08B1FFF7C6F803
:10236000042269460D48FFF771FD08B1FFF7BEF87A
:10237000082269460948FFF769FD08B1FFF7B6F87A
:102380000C2269460548FFF761FD08B1FFF7AEF87A
:102390000248FFF737FD0AB010BD00001000002012
:1023A0000C4810B50A4901604FF4165141600021F4
:1023B00081600C22C160C0E904128161C161FFF734
:1023C00035FE002803D0BDE81040FFF78FB810BDE0
:1023D0000048004058000020FEE7000010B5002132
:1023E0000848FFF7D5FD04210648FFF7D1FD082175
:1023F0000448FFF7CDFDBDE810400C210148FFF770
:10240000C7BD00001000002010B5642900D9642168
:1024100040F2E73251436422B1FBF2F30849002451
:102420000A6848B1012805D0022802D1D46308689F
:10243000036410BDD36300E0D4630868046410BD76
:102440001000002010B5642900D9642140F2E73261
:1024500051436422B1FBF2F3084900240A6848B1F1
:10246000012805D0022802D194630868436310BD97
:10247000936300E094630868446310BD100000207B
:10248000FEE770477047FFF769B930B58FB0282174
:102490006846FDF792FF14210AA8FDF78EFF01217F
:1024A0000804CDE900100024029402250491CDE92E
:1024B00007504FF4E01009906846FFF7CBFA08B1D7
:1024C00072B6FEE70F20CDE90A054FF48060CDE932
:1024D0000C4002210AA80E94FFF7CAF9002801D087
:1024E00072B6FEE70FB030BD70470000F0B502686D
:1024F000164B174C174D4FF08047984205D0B84205
:1025000003D0A04201D0A84203D122F070064A684D
:102510003243984205D0B84203D0A04201D0A8422D
:1025200003D122F44074CA6822434C6922F080022D
:10253000224302608A68C2620A688262984201D1BC
:102540000969016301214161F0BD0000002C0140D7
:10255000000400400008004010B501F01F030121F5
:10256000046A99408C430462016A9A4011430162F3
:1025700010BD000030B5026A22F001020262026A58
:102580004368846924F073050C682C4322F002052B
:102590008A682A430A4DA8420BD122F00805CA686E
:1025A00023F440732A434D6922F004021D438B69D2
:1025B0002B434360846149684163026230BD00007F
:1025C000002C014030B5026A22F010020262026A59
:1025D000436884690D6824F4E64444EA05248D6860
:1025E00022F0200242EA05120B4DA8420ED1CD681E
:1025F00022F0800242EA05124D6923F4406343EA67
:1026000085038D6922F0400243EA850343608461BB
:1026100049688163026230BD002C014030B5026A16
:1026200022F480720262036A4268C46923F4007370
:1026300024F073050C682C438D6843EA05230C4D88
:10264000A8420ED1CD6823F4006343EA05234D6907
:1026500022F4405242EA05128D6923F4806342EA73
:1026600005124260C4614968C163036230BD000065
:10267000002C014030B5026A22F480520262046AE2
:102680004268C3690D6823F4E64343EA05238D6875
:1026900024F4005444EA0534064DA84204D14D699F
:1026A00022F4804242EA85124260C36149680164B3
:1026B000046230BD002C014070B504460068016919
:1026C000E26821F44051114301612169A068084387
:1026D000616908432168CA6841F20C639A43024366
:1026E000CA6020684169A26921F4407111434161C7
:1026F0001E492068884202D1FFF766F901E0FFF722
:1027000053F900EBC00101EB001260686421800006
:10271000B2FBF0F3B3FBF1F36FF018067343B2FBB7
:10272000F0F5B2FBF0F605EB8305322303EB05155C
:10273000B5FBF1F5B6FBF1F605F0F00505EB061576
:10274000B2FBF0F6B2FBF0F0B0FBF1F06FF0180264
:10275000504306EB800003EB0010B0FBF1F0216862
:1027600000F00F002844886070BD00000038014070
:102770002DE9F041984617460E460446069D1DE099
:10278000681C1BD02DB1FEF7E3FFA0EB0800A842A8
:1027900014D92068C16821F4D071C16020684169F2
:1027A00021F001014161202084F8390084F83A00C9
:1027B000002084F838000320BDE8F081206800681C
:1027C00036EA000004D00020B842D9D00020F3E758
:1027D0000120F9E72DE9F0470122294C550329464C
:1027E0002046FEF7B0FF0A20FEF76CFE00222946C5
:1027F0002046FEF7A8FFFEF7ABFF00F13205DFF839
:102800008490A61404E000BFFEF7A2FFA84213D8EC
:1028100031462046FEF792FF0028F5D0DFF86880A9
:10282000D8F80470FEF794FF00F1320508E000BF0D
:10283000FEF78EFFA84203D900204946BDE8F08785
:1028400031462046FEF77AFF0128F1D0D8F804007F
:10285000C51BFFF7A3F800F079FC06460C46284696
:1028600000F074FC3246234600F0D2FA0022074BF7
:1028700000F0BCFCBDE8F0474FF0FF3200F008BFAD
:10288000000C01400000F0BF001000E0009AE040A2
:102890002DE9F0470122294CD50329462046FEF7B1
:1028A00052FF0A20FEF70EFE002229462046FEF7C0
:1028B0004AFFFEF74DFF00F13205DFF884904FF438
:1028C000804603E0FEF744FFA84213D83146204675
:1028D000FEF734FF0028F5D0DFF86880D8F80470E0
:1028E000FEF736FF00F1320508E000BFFEF730FFCB
:1028F000A84203D900204946BDE8F087314620466A
:10290000FEF71CFF0128F1D0D8F80400C51BFFF723
:1029100045F800F01BFC06460C46284600F016FC65
:102920003246234600F074FA0022074B00F05EFCAA
:10293000BDE8F0474FF0FF3200F0AABE000C0140A6
:102940000000F0BF001000E0009AE040FEE7490000
:1029500050EAC12018BF04204A0D18BF40F0010002
:1029600040F2FF72B2EB515F08BF40F00200012855
:1029700008BF052070470907090E002804DB00F195
:10298000E02080F80014704700F00F0000F1E02014
:1029900080F8141D704730380A2801D20120704792
:1029A000002070479CB0FEF7E1FEFFF76EFDFFF7D9
:1029B0005FFCFFF7F5FCFFF7A3FCFEF79BFCFEF7BF
:1029C0006DFDFFF70BFDFFF763FF82468B46FFF7B8
:1029D00001FF00209149CDE91600CDE91401CDE9B0
:1029E0001800CDE910000446054601460F908C48BA
:1029F000CDE909011E201A9000F0A8FB894A8A4BF4
:102A000000F0F4FBCDE9040181F00041CDE90D10A7
:102A100050465946FEF76CFD82468B4683A0FEF772
:102A200021FD032250465946FEF7D8FCDDE9091086
:102A300052465B4600F00EFD064680480F46406851
:102A40000C907F48006800F081FB804689460F9912
:102A50000C98401A00F07AFB42464B4600F0D8F939
:102A600080460F98894660B100221346404600F028
:102A700081FB06D90022694B4046494600F0B4FC70
:102A800003D2DFF8C081DFF8C091DDE910233046C2
:102A9000394600F0DFFC42464B4600F0B9F9CDE97B
:102AA0000F1042464B463046394600F09FFB224607
:102AB0002B4600F0F1F8DFF894914FF0000804463F
:102AC0000D4642464B4600F08FFC01D244464D462F
:102AD00022462B4600205E4900F086FC01D25C4D68
:102AE0000024DDE91801DDE90F3200F07FFBCDE9BC
:102AF0001110DDE9160122462B4600F077FB8046D7
:102B00008946DDE9140132463B4600F06FFB424640
:102B10004B4600F0C1F8DDE9113200F0BDF8804607
:102B20008946DDE90401CDE90F1002460B46404617
:102B3000494600F059FC02D2DDE90F918846DDE9F3
:102B40000D10CDE9111042464B4600F04DFC02D26B
:102B5000DDE9119188464046494600F0B1FA1A99DC
:102B6000024641181A98A0EB020800D50021B8F1DE
:102B7000000F01DA4FF00008642900DD6421B8F18C
:102B8000640F01DD4FF06408084600F0C8FA814682
:102B90004FF033322F4B019100F028FB00F090FAF8
:102BA000109008F0FF010120FFF72EFC1098C1B231
:102BB0000120FFF747FC28A0FEF754FC0222304614
:102BC0003946FEF70BFC26A0FEF74CFC48460022D7
:102BD0000199FEF703FC23A0FEF744FC404600F0F9
:102BE0009EFA0022FEF7FAFB1FA0FEF73BFCDDE990
:102BF00018010DF1500CCDE900019CE80F00FEF723
:102C000009FC18AA16A914A8FEF78EFBCDE91067D7
:102C10000C980F901420FEF78FFCF9E60000F03FAF
:102C2000000024409A9999999999E93F72696768D7
:102C3000745F64697374616E63653A00001000E04C
:102C40000C0000207B14AE47E17A843F000049402D
:102C5000000049C03333F33F204572726F723A006F
:102C6000204C3A0020523A000D0A000010B500290D
:102C70000AD00878002807D005487844FDF738FFC7
:102C8000002801D0002010BD0248784410BD00008B
:102C90006E0B0000660B000010B591EA030F48BFF1
:102CA00083F0004300F1DE83841A71EB030C05D23C
:102CB000121943EB0C03001B61EB0C01DFF824E15C
:102CC0004FEA1154A4EB135C1EEA430F18BF9EEAAF
:102CD000445F73D023EA0E03DCF1200E21EA045195
:102CE00043F4801332D322FA0CFE10EB0E0023FAC9
:102CF0000CFE41EB0E01CCF1200E03FA0EFE10EBA0
:102D00000E0051F10001B1F5801FCCF1200E32D23E
:102D100001EB045112FA0EF2BDE8104058BF7047A3
:102D2000401C38BF5FEA420218BF7047002814BF3A
:102D300020F0010041F100014FEA410313F5001FAB
:102D400038BF7047A1F1C04100F048BB012A43EBF6
:102D50000302ACF1200CDCF11F0E32BF4FF0000E6D
:102D600023FA0CF310EB030041EB0451B4EB115FB9
:102D7000D0D0A1EB045101F5801149085FEA300081
:102D800001EB04510ED350F1000038BF12FA0EFED1
:102D900008D1BDE81040C9E7401C38BF5FEA4202D5
:102DA000CAD1C3E7BDE810404FEA410313F5001F45
:102DB00038BF7047A1F1C04100F010BB9EEA445FEC
:102DC00008D011EA5E0FBDE8104004BF01F00041D9
:102DD00000207047BDE8104070B500F0B1FA00BFA8
:102DE00064FBBE3E0000E0FF02494FF0000000F02F
:102DF0001DBC00BF0000F87F491058BFC1F1404121
:102E00005B1058BFC3F140438B42EFF30080704723
:102E10002DE9C04130B4DFF8A0C23CEA111418BF5C
:102E20003CEA131400F0EC8081EA03051CEA11145B
:102E300044EAD57418BF1CEA131500F0C780A4EB50
:102E400005044FF0004545EAC12145EAC32341EAA4
:102E5000505143EA525304F17F74994204F500340F
:102E60004FEAC0204FEAC22208BF904200F09C8087
:102E70004FEA13650FF24016765D4FEA134506FBE5
:102E800005F7C7F1807706FB07F74FEAD737A7FBAF
:102E900003687642C8F58038A7FB06CE38BFA8F194
:102EA000010807FB08E64FF0000EA6FB028CE6FBCC
:102EB00003CEDCF1000CCEF1004E38BFAEF1010EB6
:102EC000A6FB0C584FF000074FF00005E6FB0E87FD
:102ED000A1FB08C6A0FB07CE16EB0E0645F10005C8
:102EE000E1FB076515F1E04E7EBFA4F580345FEA93
:102EF00046066D4116F1800745F100054FEA172798
:102F00004FEA066647EA0567A6F1DE46B6F1805F3E
:102F10004FEA15251FD9384624F0010C05EBC47182
:102F2000BCF1FE6F01EB0C1102D8F0BCBDE80081D2
:102F300024425CBF01F5801E9EEAC47F02D4F0BC2F
:102F4000BDE80081244238D4F0BCA1F1C041BDE805
:102F5000004100F043BA4FEAD22242EA43524FEA1C
:102F6000D323A7FB02864FEAD02040EA415007FB5B
:102F700003661EEA0E0F4FEAD12105FB026658BF19
:102F8000A6EB0056B6EB00564FEA520E4EEAC37E51
:102F900018EB0E0E56EB530EBDD518EB02085E4132
:102FA0007F1C55F10005B6E74FF480154FF0000780
:102FB0004FF000064FF00008ADE7F0BC4FF0000006
:102FC00001F1C04101F00041BDE8008111EA0C1F90
:102FD0000CEA131500D00CE013EA0C1F00F025805A
:102FE0004FF00000F0BC81EA030101F00041BDE8B0
:102FF0000081F0BCBDE8004181EA030100F0EEB9B8
:10300000F0BCBDE8004170B500F09AF9097EFC3EC5
:1030100000F007B881EA03014FF0000001F0004121
:10302000704781EA030100F0D9B9F0BCBDE8004166
:103030004FF0000021497047FFFDFBF9F7F5F4F26E
:10304000F0EEEDEBE9E8E6E4E3E1E0DEDDDBDAD843
:10305000D7D5D4D3D1D0CFCDCCCBCAC8C7C6C5C4A1
:10306000C2C1C0BFBEBDBCBBBAB9B8B7B6B5B4B3B8
:10307000B2B1B0AFAEADACABAAA9A8A8A7A6A5A4A3
:10308000A3A3A2A1A09F9F9E9D9C9C9B9A99999867
:103090009797969595949393929191908F8F8E8E0A
:1030A0008D8C8C8B8B8A8989888887878685858497
:1030B00084838382828181800000FF070000F87F83
:1030C0004FEA41034FEA5353A3F58063D3F11E0344
:1030D000C8BFD3F1210C0CDD4FF0004242EAC122FF
:1030E00042EA505232FA03FC8CEAE17CACEBE1702C
:1030F0007047102BC4BF0020704703F5787CBCF1EB
:10310000FF3F04D06FF0004282EA2100704770B5A3
:1031100000F016F94992248000207047F2E710F081
:10312000004248BF4042B0FA80F310FA03F10AD0DF
:10313000C3F11D0303F580634FEA415002EB0352D4
:1031400002EBD12170474FF000007047B0FA80F3D6
:1031500010FA03F10AD0C3F11D0303F580634FEAAF
:1031600041504FEA035202EBD12170474FF000006B
:103170007047000051EA030C17D41CF5801F58BF9C
:10318000BCF5801F00F10680994218BF704708BF48
:103190009042704707D711F5801F58BF13F5801F65
:1031A00019D499427047894270471CF5801F08D591
:1031B000BCF5801FF7D58B4218BF704708BF82420D
:1031C00070474FF4001C1CEB410F38BF1CEB430F42
:1031D00001D28B42704770B500F0B2F892244900DA
:1031E0004FF000514FF08053FFF706BEDFF848C1A3
:1031F00070B51CEA111E1EBF1CEA13159EEA0C0FC7
:1032000095EA0C0F00F06F8081EA030423EA4C1367
:103210004EEAD47E21EA4C1141F4801143F480132C
:10322000AE44A1FB024CA0FB0365AEF17F7E3619D4
:1032300055EB0C05A1FB034C4CF10003A0FB021C59
:1032400016EB0C06654153F10003094218BF46F026
:10325000010613F4007F0BD14FEA03314FEA05302A
:10326000340341EA155140EA16506FF003020AE0B8
:103270004FEAC3214FEAC520F40241EA555140EA22
:1032800056506FF0020202EB2E4201EB025585EA26
:10329000CE710AD05FEA440C18BF24F0004450F10C
:1032A000000041F1000120EAD47040F2FE7C62454A
:1032B00000D270BDA84214BF4FF080444FF040448C
:1032C000002E08BF0024BEF1806FA8BFA1F1C0414D
:1032D000BDE8704080F282804FF0000001F1C041F3
:1032E00001F0004170479EEA0C0F0CEA131518BF5D
:1032F00095EA0C0F06D04FF0000081EA030E0EF0A5
:10330000004170BD00F01CF88900013E00F007B8D4
:1033100000F009B84FEA430C5FEA5C5C08D081EA30
:10332000030100F05BB84FEA410C5FEA5C5CF6D148
:103330004FF00000014970470000FF070000F87FD0
:103340000EF1020E2EF0030E5EF8046B364205D429
:10335000012A43EB030515F5001F12D8012841EBA4
:10336000010C1CF5001F0CD80ED14FEAD17C15F5CD
:10337000001F0CEB4C0C0CF1020C08BF4CEBD37C87
:1033800004E04FF0080C01E04FEAD37C0CEB4C0555
:1033900026FA05F606F00706B6F1040C06D20EEB87
:1033A000860CBDE870404CF0010C6047DFE80CF083
:1033B000090B02024FF000414FF00000A1F500217F
:1033C00070BD19461046012851EB010418BFD4F511
:1033D000001484BF002001F0004170BD0808A0F572
:1033E00000114FEA3101704753EA010C17D41CF564
:1033F000801F58BFBCF5801F00F106808B4218BFAC
:10340000704708BF8242704707D713F5801F58BF27
:1034100011F5801F19D48B4270479B4270471CF5F1
:10342000801F08D5BCF5801FF7D5994218BF70479B
:1034300008BF904270474FF4001C1CEB430F38BF8D
:103440001CEB410F01D2994270470FB40CBC03BC76
:10345000FFF7C1BE10B591EA030F48BF83F00043E8
:103460003FF522AC841A71EB030C07D212198CF0D1
:10347000004C43EB0C03001B61EB0C01DFF8A4E1F3
:103480004FEA1154A4EB135C1EEA430F18BF9EEAE7
:10349000445F00F0B08023EA6E03524221EA0451F7
:1034A000C3EB6E0338BF5B1EDCF1200E25D322FA7E
:1034B0000CFE10EB0E0043FA0CFE41EB0E01CCF1BA
:1034C000200E03FA0EFE10EB0E0051F10001CCF1BC
:1034D000200E29D412FA0EF201EB0451BDE810407F
:1034E00058BF7047401C1CBFB2F1004F7047002806
:1034F0000CBF491C20F00100704712EB020E43EB99
:10350000030218BF4FF0010E4EEA4202ACF1200C4C
:10351000DCF11E0E54D943FA0CFE10EB0E0051F1F3
:10352000FF31CCF11E0ED5D50EF1010E12FA0EFEB2
:10353000404141EB010101EB445C5FEA5C5C10D966
:1035400010EBDE7001EB045138BFBEF1004FBDE857
:10355000104018BF704700280CBF491C20F0010024
:10356000704730D24FEAD42C11F5001124F40064D6
:103570001BD0B1FA81F20B3AA41AA41ED2F1200397
:10358000914030FA03F31943904001EBCC71002CC9
:1035900001EB0451BDE81040A8BF704701F1C041E4
:1035A0004FF0000001F000417047B0FA80F310FACC
:1035B00003F100D110BDE41A173C4805C90AE4E73D
:1035C00001EB045110BD491001EB0451BDE810405E
:1035D0004FEA300002E04FF0000170474A0008BF98
:1035E0000042F8D0B2F5001F28BF704701F000413B
:1035F0004FF0000070479EEA445F07D011EA5E0F6B
:10360000BDE8104004BF002100207047BDE8104015
:1036100070B5FFF795FE00BF40DFF63E83F0004136
:10362000104670470000E0FFFCF7C8BF0CF00F0326
:10363000092B08BF082000F059800A2B0BD0082B5B
:1036400018BF704708BF1CF0400F0AD04FF00000B1
:103650004FF0000170471CF0400F18BF4FF00040C2
:1036600070471CF0100F08D020F0704300F07F422C
:1036700042EAD3014FEA4370704700F0604021F006
:103680007F4242EA000201F07F4040EA72707047D8
:103690004FF0FF0C4CF4E06C1CEA11531CBF9CEA89
:1036A000030C9445C2BFDA4201EB02517047002B74
:1036B0000DD0BCF1000F0FD0002A01F00041A4BFD3
:1036C00041F0E04141F07F614FF00000704701F0B0
:1036D00000414FF00000704750EA01334FF09B0C5F
:1036E00018BF4CF0806C7FF47FAB70471CF4801FD8
:1036F00011D01CF4E02F03D06FEACC3149007047A1
:103700004FF04050EFF3008222F0704242EA000294
:1037100082F3008870474FF00000704700000000FF
:103720000000000001020304060708090000000071
:103730000102030402400000000000A0000000009D
:1037400005400000000000C8000000000C40000020
:103750000000409C00000000194000000020BCBE9A
:103760000000000034400000BFC91B8E00000004B0
:10377000B5400000504BCFD06607E2CF01000000FB
:103780006C4100003E8251AADFEEA7340100000028
:10379000D9420000DCB5A0E23A301F97FFFFFFFFDF
:1037A000B4450000FD25A0C8E9A3C14FFFFFFFFFFE
:1037B000FF3F00000000008000000000FF3F00000D
:1037C0000000008000000000043800080000002015
:1037D0001000000028010008143800081000002024
:1037E000E8060000440100081C000000430000003F
:1037F000F8FFFFFF0C0000000E0000000F000000AB
:103800002E00000001000000100000000000000079
:043810000024F4009C
:04000005080000ED02
:00000001FF
